:020000000029D5
:10000800A000030EA2000B1912200C183B200B189D
:100018004420220E8300A00E200E09000313831231
:10002800843081000B1124181F20A41826202419BD
:100038002D20A4193420A401A4148801081426082A
:1000480085000800A4012415880188142808850063
:100058000800A401A415880108152A0885000800CD
:10006800A4012416880188152C08850008000313AC
:1000780083120B308F00DC308E000C10B80A080099
:10008800061C7D2836194B28B6197C280B10861CAF
:100098005428061D5E28861D6828061E72280B1027
:1000A800BA0AB801031383120B308F00DC308E00BC
:1000B8000C100B10BA03B801031383120B308F0016
:1000C800DC308E000C100B10BC0AB801031383122D
:1000D8000B308F00DC308E000C100B10BC03B80105
:1000E800031383120B308F00DC308E000C100B10C2
:1000F8000B10B40A3419B401341886288328B418AC
:1001080089288E28B41892289728B60136158701B1
:1001180087160B10B601361487010B10B601B615F9
:10012800870107170B10B601B614870107170B10C4
:100200002F2151215721662176218921B801BA0178
:10021000BC01B401B6013614031383120313831215
:1002200036189521B618BC2136199521B619BC216E
:10023000BA1BD121BC1BD621BD21C421CB21102941
:100240008A010A140F3982073F3406345B344F3475
:1002500066346D347D3407347F34673400340317DB
:100260008316880103178316890103138316061466
:1002700086140615861506160313831685010313C7
:1002800083160712871207130313831608108810AA
:100290000811881181131514951415159515151647
:1002A0000800031383160F138F160F16080003138D
:1002B000831603138316811281110111811001101D
:1002C00003138312843081000B110800031383127F
:1002D0001013901210169011901010140313831223
:1002E0000B308F00DC308E000C10080003138316D7
:1002F000FF309600031383128B170B178B160B110D
:100300008B150B10031383160C14031383120C109C
:100310000800031383161614961416159615161650
:100320000313831206080B1008003A08B200B30149
:10033000B30A0A30B202031898293303B0000A3016
:100340003207AE002E082021A60030082021A80088
:100350003C08B200B301B30A0A30B2020318AB2959
:100360003303B0000A303207AE002E082021AA0065
:1003700030082021AC000800080038083C3C031D70
:100380000800B801BA0A08003A083C3C031D0800FE
:10039000BA01BC0A08003C08183C031D0800BC0157
:1003A0000800BC03BA013B30BA000800BC0117309A
:0403B000BC00080085
:04400E00C420FF3F8C
:00000001FF
